{
  "contractName": "Tweets",
  "abi": [
    {
      "inputs": [
        {
          "internalType": "uint256",
          "name": "",
          "type": "uint256"
        }
      ],
      "name": "tweets",
      "outputs": [
        {
          "internalType": "uint256",
          "name": "id",
          "type": "uint256"
        },
        {
          "internalType": "string",
          "name": "content",
          "type": "string"
        },
        {
          "internalType": "address",
          "name": "author",
          "type": "address"
        },
        {
          "internalType": "bool",
          "name": "deleted",
          "type": "bool"
        }
      ],
      "stateMutability": "view",
      "type": "function",
      "constant": true
    },
    {
      "inputs": [],
      "name": "readTweets",
      "outputs": [
        {
          "components": [
            {
              "internalType": "uint256",
              "name": "id",
              "type": "uint256"
            },
            {
              "internalType": "string",
              "name": "content",
              "type": "string"
            },
            {
              "internalType": "address",
              "name": "author",
              "type": "address"
            },
            {
              "internalType": "bool",
              "name": "deleted",
              "type": "bool"
            }
          ],
          "internalType": "struct Tweets.Tweeter[]",
          "name": "",
          "type": "tuple[]"
        }
      ],
      "stateMutability": "view",
      "type": "function",
      "constant": true
    },
    {
      "inputs": [
        {
          "internalType": "string",
          "name": "_content",
          "type": "string"
        }
      ],
      "name": "createTweets",
      "outputs": [],
      "stateMutability": "nonpayable",
      "type": "function"
    }
  ],
  "bytecode": "0x608060405234801561001057600080fd5b50610abd806100206000396000f3fe608060405234801561001057600080fd5b50600436106100415760003560e01c80630a7aa8a114610046578063e8d857b014610062578063f3c6a42b14610095575b600080fd5b610060600480360381019061005b9190610543565b6100b3565b005b61007c60048036038101906100779190610584565b6101c2565b60405161008c9493929190610787565b60405180910390f35b61009d6102b7565b6040516100aa9190610765565b60405180910390f35b600060016000805490506100c7919061088f565b9050600060405180608001604052808381526020018481526020013373ffffffffffffffffffffffffffffffffffffffff168152602001600015158152509080600181540180825580915050600190039060005260206000209060030201600090919091909150600082015181600001556020820151816001019080519060200190610154929190610423565b5060408201518160020160006101000a81548173ffffffffffffffffffffffffffffffffffffffff021916908373ffffffffffffffffffffffffffffffffffffffff16021790555060608201518160020160146101000a81548160ff02191690831515021790555050505050565b600081815481106101d257600080fd5b90600052602060002090600302016000915090508060000154908060010180546101fb9061096f565b80601f01602080910402602001604051908101604052809291908181526020018280546102279061096f565b80156102745780601f1061024957610100808354040283529160200191610274565b820191906000526020600020905b81548152906001019060200180831161025757829003601f168201915b5050505050908060020160009054906101000a900473ffffffffffffffffffffffffffffffffffffffff16908060020160149054906101000a900460ff16905084565b60606000805480602002602001604051908101604052809291908181526020016000905b8282101561041a5783829060005260206000209060030201604051806080016040529081600082015481526020016001820180546103189061096f565b80601f01602080910402602001604051908101604052809291908181526020018280546103449061096f565b80156103915780601f1061036657610100808354040283529160200191610391565b820191906000526020600020905b81548152906001019060200180831161037457829003601f168201915b505050505081526020016002820160009054906101000a900473ffffffffffffffffffffffffffffffffffffffff1673ffffffffffffffffffffffffffffffffffffffff1673ffffffffffffffffffffffffffffffffffffffff1681526020016002820160149054906101000a900460ff161515151581525050815260200190600101906102db565b50505050905090565b82805461042f9061096f565b90600052602060002090601f0160209004810192826104515760008555610498565b82601f1061046a57805160ff1916838001178555610498565b82800160010185558215610498579182015b8281111561049757825182559160200191906001019061047c565b5b5090506104a591906104a9565b5090565b5b808211156104c25760008160009055506001016104aa565b5090565b60006104d96104d4846107f8565b6107d3565b9050828152602081018484840111156104f157600080fd5b6104fc84828561092d565b509392505050565b600082601f83011261051557600080fd5b81356105258482602086016104c6565b91505092915050565b60008135905061053d81610a70565b92915050565b60006020828403121561055557600080fd5b600082013567ffffffffffffffff81111561056f57600080fd5b61057b84828501610504565b91505092915050565b60006020828403121561059657600080fd5b60006105a48482850161052e565b91505092915050565b60006105b983836106e4565b905092915050565b6105ca816108e5565b82525050565b6105d9816108e5565b82525050565b60006105ea82610839565b6105f4818561085c565b93508360208202850161060685610829565b8060005b85811015610642578484038952815161062385826105ad565b945061062e8361084f565b925060208a0199505060018101905061060a565b50829750879550505050505092915050565b61065d816108f7565b82525050565b61066c816108f7565b82525050565b600061067d82610844565b610687818561086d565b935061069781856020860161093c565b6106a081610a5f565b840191505092915050565b60006106b682610844565b6106c0818561087e565b93506106d081856020860161093c565b6106d981610a5f565b840191505092915050565b60006080830160008301516106fc6000860182610747565b50602083015184820360208601526107148282610672565b915050604083015161072960408601826105c1565b50606083015161073c6060860182610654565b508091505092915050565b61075081610923565b82525050565b61075f81610923565b82525050565b6000602082019050818103600083015261077f81846105df565b905092915050565b600060808201905061079c6000830187610756565b81810360208301526107ae81866106ab565b90506107bd60408301856105d0565b6107ca6060830184610663565b95945050505050565b60006107dd6107ee565b90506107e982826109a1565b919050565b6000604051905090565b600067ffffffffffffffff82111561081357610812610a30565b5b61081c82610a5f565b9050602081019050919050565b6000819050602082019050919050565b600081519050919050565b600081519050919050565b6000602082019050919050565b600082825260208201905092915050565b600082825260208201905092915050565b600082825260208201905092915050565b600061089a82610923565b91506108a583610923565b9250827fffffffffffffffffffffffffffffffffffffffffffffffffffffffffffffffff038211156108da576108d96109d2565b5b828201905092915050565b60006108f082610903565b9050919050565b60008115159050919050565b600073ffffffffffffffffffffffffffffffffffffffff82169050919050565b6000819050919050565b82818337600083830152505050565b60005b8381101561095a57808201518184015260208101905061093f565b83811115610969576000848401525b50505050565b6000600282049050600182168061098757607f821691505b6020821081141561099b5761099a610a01565b5b50919050565b6109aa82610a5f565b810181811067ffffffffffffffff821117156109c9576109c8610a30565b5b80604052505050565b7f4e487b7100000000000000000000000000000000000000000000000000000000600052601160045260246000fd5b7f4e487b7100000000000000000000000000000000000000000000000000000000600052602260045260246000fd5b7f4e487b7100000000000000000000000000000000000000000000000000000000600052604160045260246000fd5b6000601f19601f8301169050919050565b610a7981610923565b8114610a8457600080fd5b5056fea2646970667358221220d5e9a4466b0dc300161ccb517515cf158e55c0af38abee9e51ce5b1271754aa664736f6c63430008010033",
  "immutableReferences": {},
  "source": "pragma solidity ^0.8.0;\n\ncontract Tweets {\n\nTweeter[] public tweets;\n\n    struct Tweeter {\n        uint id;\n        string content;\n        address author;\n        bool deleted;\n    }\n\n    /**\n\t * @dev We can fix the comment later. This is just a fix since we were having issues access the tweets array direclty\n     * Now this should work 'tweets = await instance.readTweets()'\n\t */\n    function readTweets() public view returns (Tweeter[] memory){\n        return tweets;\n    }\n\n    function createTweets(string memory _content) public {\n        uint id = tweets.length + 1;\n        tweets.push(Tweeter(id, _content, msg.sender, false));\n    }\n\n}\n",
  "sourcePath": "/usr/src/app/contracts/Tweets.sol",
  "compiler": {
    "name": "solc",
    "version": "0.8.1+commit.df193b15.Emscripten.clang"
  },
  "schemaVersion": "3.3.3",
  "updatedAt": "2021-05-28T00:22:45.710Z",
  "networkType": "ethereum",
  "devdoc": {
    "kind": "dev",
    "methods": {
      "readTweets()": {
        "details": "We can fix the comment later. This is just a fix since we were having issues access the tweets array direclty Now this should work 'tweets = await instance.readTweets()'"
      }
    },
    "version": 1
  },
  "userdoc": {
    "kind": "user",
    "methods": {},
    "version": 1
  }
}