{
  "contractName": "Tweets",
  "abi": [
    {
      "constant": true,
      "inputs": [
        {
          "internalType": "uint256",
          "name": "",
          "type": "uint256"
        }
      ],
      "name": "tweets",
      "outputs": [
        {
          "internalType": "uint256",
          "name": "id",
          "type": "uint256"
        },
        {
          "internalType": "string",
          "name": "content",
          "type": "string"
        },
        {
          "internalType": "address",
          "name": "author",
          "type": "address"
        },
        {
          "internalType": "bool",
          "name": "deleted",
          "type": "bool"
        }
      ],
      "payable": false,
      "stateMutability": "view",
      "type": "function"
    },
    {
      "constant": false,
      "inputs": [
        {
          "internalType": "string",
          "name": "_content",
          "type": "string"
        }
      ],
      "name": "createTweets",
      "outputs": [],
      "payable": false,
      "stateMutability": "nonpayable",
      "type": "function"
    }
  ],
  "bytecode": "0x608060405234801561001057600080fd5b506104c7806100206000396000f3fe608060405234801561001057600080fd5b50600436106100365760003560e01c80630a7aa8a11461003b578063e8d857b0146100f6575b600080fd5b6100f46004803603602081101561005157600080fd5b810190808035906020019064010000000081111561006e57600080fd5b82018360208201111561008057600080fd5b803590602001918460018302840111640100000000831117156100a257600080fd5b91908080601f016020809104026020016040519081016040528093929190818152602001838380828437600081840152601f19601f8201169050808301925050505050505091929192905050506101e2565b005b6101226004803603602081101561010c57600080fd5b81019080803590602001909291905050506102eb565b60405180858152602001806020018473ffffffffffffffffffffffffffffffffffffffff1673ffffffffffffffffffffffffffffffffffffffff16815260200183151515158152602001828103825285818151815260200191508051906020019080838360005b838110156101a4578082015181840152602081019050610189565b50505050905090810190601f1680156101d15780820380516001836020036101000a031916815260200191505b509550505050505060405180910390f35b60006001600080549050019050600060405180608001604052808381526020018481526020013373ffffffffffffffffffffffffffffffffffffffff168152602001600015158152509080600181540180825580915050906001820390600052602060002090600302016000909192909190915060008201518160000155602082015181600101908051906020019061027c9291906103ed565b5060408201518160020160006101000a81548173ffffffffffffffffffffffffffffffffffffffff021916908373ffffffffffffffffffffffffffffffffffffffff16021790555060608201518160020160146101000a81548160ff0219169083151502179055505050505050565b600081815481106102f857fe5b9060005260206000209060030201600091509050806000015490806001018054600181600116156101000203166002900480601f0160208091040260200160405190810160405280929190818152602001828054600181600116156101000203166002900480156103aa5780601f1061037f576101008083540402835291602001916103aa565b820191906000526020600020905b81548152906001019060200180831161038d57829003601f168201915b5050505050908060020160009054906101000a900473ffffffffffffffffffffffffffffffffffffffff16908060020160149054906101000a900460ff16905084565b828054600181600116156101000203166002900490600052602060002090601f016020900481019282601f1061042e57805160ff191683800117855561045c565b8280016001018555821561045c579182015b8281111561045b578251825591602001919060010190610440565b5b509050610469919061046d565b5090565b61048f91905b8082111561048b576000816000905550600101610473565b5090565b9056fea265627a7a7231582054a278837395a44387049c1d9bcfec9a4ba6642b0db63b54aaa77f30fe12f71764736f6c63430005100032",
  "source": "pragma solidity >=0.5.0 <0.9.0;\n\ncontract Tweets{\n\nTweeter[]  public tweets;\n\nstruct Tweeter{\n    uint id;\n    string content;\n    address author;\n    bool deleted;\n}\n\nfunction createTweets(string memory _content) public {\n     uint id = tweets.length +1;\n     tweets.push(Tweeter(id, _content, msg.sender, false));\n        \n}\n\n}\n",
  "sourcePath": "/home/chad/git_repos/twitterclone/twitterclone/contracts/Tweets.sol",
  "compiler": {
    "name": "solc",
    "version": "0.5.16+commit.9c3226ce.Emscripten.clang"
  },
  "schemaVersion": "3.4.1",
  "updatedAt": "2021-05-18T21:05:18.757Z",
  "networkType": "ethereum",
  "devdoc": {
    "methods": {}
  },
  "userdoc": {
    "methods": {}
  }
}