{
  "contractName": "Tweets",
  "abi": [
    {
      "anonymous": false,
      "inputs": [
        {
          "indexed": false,
          "internalType": "uint256",
          "name": "id",
          "type": "uint256"
        },
        {
          "indexed": false,
          "internalType": "string",
          "name": "content",
          "type": "string"
        },
        {
          "indexed": false,
          "internalType": "address",
          "name": "author",
          "type": "address"
        }
      ],
      "name": "Tweeted",
      "type": "event"
    },
    {
      "inputs": [
        {
          "internalType": "uint256",
          "name": "",
          "type": "uint256"
        }
      ],
      "name": "tweets",
      "outputs": [
        {
          "internalType": "uint256",
          "name": "id",
          "type": "uint256"
        },
        {
          "internalType": "string",
          "name": "content",
          "type": "string"
        },
        {
          "internalType": "address",
          "name": "author",
          "type": "address"
        },
        {
          "internalType": "bool",
          "name": "deleted",
          "type": "bool"
        }
      ],
      "stateMutability": "view",
      "type": "function",
      "constant": true
    },
    {
      "inputs": [],
      "name": "readTweets",
      "outputs": [
        {
          "components": [
            {
              "internalType": "uint256",
              "name": "id",
              "type": "uint256"
            },
            {
              "internalType": "string",
              "name": "content",
              "type": "string"
            },
            {
              "internalType": "address",
              "name": "author",
              "type": "address"
            },
            {
              "internalType": "bool",
              "name": "deleted",
              "type": "bool"
            }
          ],
          "internalType": "struct Tweets.Tweeter[]",
          "name": "",
          "type": "tuple[]"
        }
      ],
      "stateMutability": "view",
      "type": "function",
      "constant": true
    },
    {
      "inputs": [
        {
          "internalType": "string",
          "name": "_content",
          "type": "string"
        }
      ],
      "name": "createTweets",
      "outputs": [],
      "stateMutability": "nonpayable",
      "type": "function"
    },
    {
      "inputs": [
        {
          "internalType": "uint256",
          "name": "_index",
          "type": "uint256"
        }
      ],
      "name": "delTweets",
      "outputs": [],
      "stateMutability": "nonpayable",
      "type": "function"
    },
    {
      "inputs": [
        {
          "internalType": "uint256",
          "name": "_index",
          "type": "uint256"
        },
        {
          "internalType": "string",
          "name": "_newcontent",
          "type": "string"
        }
      ],
      "name": "editTweets",
      "outputs": [],
      "stateMutability": "nonpayable",
      "type": "function"
    }
  ],
  "bytecode": "0x608060405234801561001057600080fd5b5061109c806100206000396000f3fe608060405234801561001057600080fd5b50600436106100575760003560e01c80630a7aa8a11461005c5780631f212b6114610078578063989bb70414610094578063e8d857b0146100b0578063f3c6a42b146100e3575b600080fd5b61007660048036038101906100719190610865565b610101565b005b610092600480360381019061008d91906108cf565b61024b565b005b6100ae60048036038101906100a991906108a6565b610396565b005b6100ca60048036038101906100c591906108a6565b6104e4565b6040516100da9493929190610c41565b60405180910390f35b6100eb6105d9565b6040516100f89190610ba1565b60405180910390f35b600060016000805490506101159190610d9c565b9050600060405180608001604052808381526020018481526020013373ffffffffffffffffffffffffffffffffffffffff1681526020016000151581525090806001815401808255809150506001900390600052602060002090600302016000909190919091506000820151816000015560208201518160010190805190602001906101a2929190610745565b5060408201518160020160006101000a81548173ffffffffffffffffffffffffffffffffffffffff021916908373ffffffffffffffffffffffffffffffffffffffff16021790555060608201518160020160146101000a81548160ff02191690831515021790555050507f3884cb739084823420d7e353915c9b6ce5b4c093db1dffebc04a115f9f05be1881833360405161023f93929190610c03565b60405180910390a15050565b600060018361025a9190610df2565b90506000808281548110610297577f4e487b7100000000000000000000000000000000000000000000000000000000600052603260045260246000fd5b906000526020600020906003020190508060020160009054906101000a900473ffffffffffffffffffffffffffffffffffffffff1673ffffffffffffffffffffffffffffffffffffffff163373ffffffffffffffffffffffffffffffffffffffff1614610339576040517f08c379a000000000000000000000000000000000000000000000000000000000815260040161033090610bc3565b60405180910390fd5b82816001019080519060200190610351929190610745565b507f3884cb739084823420d7e353915c9b6ce5b4c093db1dffebc04a115f9f05be1882826001013360405161038893929190610c8d565b60405180910390a150505050565b60006001826103a59190610df2565b905060008082815481106103e2577f4e487b7100000000000000000000000000000000000000000000000000000000600052603260045260246000fd5b906000526020600020906003020190508060020160009054906101000a900473ffffffffffffffffffffffffffffffffffffffff1673ffffffffffffffffffffffffffffffffffffffff163373ffffffffffffffffffffffffffffffffffffffff1614610484576040517f08c379a000000000000000000000000000000000000000000000000000000000815260040161047b90610be3565b60405180910390fd5b60018160020160146101000a81548160ff0219169083151502179055507f3884cb739084823420d7e353915c9b6ce5b4c093db1dffebc04a115f9f05be188282600101336040516104d793929190610c8d565b60405180910390a1505050565b600081815481106104f457600080fd5b906000526020600020906003020160009150905080600001549080600101805461051d90610eb0565b80601f016020809104026020016040519081016040528092919081815260200182805461054990610eb0565b80156105965780601f1061056b57610100808354040283529160200191610596565b820191906000526020600020905b81548152906001019060200180831161057957829003601f168201915b5050505050908060020160009054906101000a900473ffffffffffffffffffffffffffffffffffffffff16908060020160149054906101000a900460ff16905084565b60606000805480602002602001604051908101604052809291908181526020016000905b8282101561073c57838290600052602060002090600302016040518060800160405290816000820154815260200160018201805461063a90610eb0565b80601f016020809104026020016040519081016040528092919081815260200182805461066690610eb0565b80156106b35780601f10610688576101008083540402835291602001916106b3565b820191906000526020600020905b81548152906001019060200180831161069657829003601f168201915b505050505081526020016002820160009054906101000a900473ffffffffffffffffffffffffffffffffffffffff1673ffffffffffffffffffffffffffffffffffffffff1673ffffffffffffffffffffffffffffffffffffffff1681526020016002820160149054906101000a900460ff161515151581525050815260200190600101906105fd565b50505050905090565b82805461075190610eb0565b90600052602060002090601f01602090048101928261077357600085556107ba565b82601f1061078c57805160ff19168380011785556107ba565b828001600101855582156107ba579182015b828111156107b957825182559160200191906001019061079e565b5b5090506107c791906107cb565b5090565b5b808211156107e45760008160009055506001016107cc565b5090565b60006107fb6107f684610cf0565b610ccb565b90508281526020810184848401111561081357600080fd5b61081e848285610e6e565b509392505050565b600082601f83011261083757600080fd5b81356108478482602086016107e8565b91505092915050565b60008135905061085f8161104f565b92915050565b60006020828403121561087757600080fd5b600082013567ffffffffffffffff81111561089157600080fd5b61089d84828501610826565b91505092915050565b6000602082840312156108b857600080fd5b60006108c684828501610850565b91505092915050565b600080604083850312156108e257600080fd5b60006108f085828601610850565b925050602083013567ffffffffffffffff81111561090d57600080fd5b61091985828601610826565b9150509250929050565b600061092f8383610b20565b905092915050565b61094081610e26565b82525050565b61094f81610e26565b82525050565b600061096082610d46565b61096a8185610d69565b93508360208202850161097c85610d21565b8060005b858110156109b857848403895281516109998582610923565b94506109a483610d5c565b925060208a01995050600181019050610980565b50829750879550505050505092915050565b6109d381610e38565b82525050565b6109e281610e38565b82525050565b60006109f382610d51565b6109fd8185610d7a565b9350610a0d818560208601610e7d565b610a1681610fa0565b840191505092915050565b6000610a2c82610d51565b610a368185610d8b565b9350610a46818560208601610e7d565b610a4f81610fa0565b840191505092915050565b60008154610a6781610eb0565b610a718186610d8b565b94506001821660008114610a8c5760018114610a9e57610ad1565b60ff1983168652602086019350610ad1565b610aa785610d31565b60005b83811015610ac957815481890152600182019150602081019050610aaa565b808801955050505b50505092915050565b6000610ae7602183610d8b565b9150610af282610fb1565b604082019050919050565b6000610b0a602283610d8b565b9150610b1582611000565b604082019050919050565b6000608083016000830151610b386000860182610b83565b5060208301518482036020860152610b5082826109e8565b9150506040830151610b656040860182610937565b506060830151610b7860608601826109ca565b508091505092915050565b610b8c81610e64565b82525050565b610b9b81610e64565b82525050565b60006020820190508181036000830152610bbb8184610955565b905092915050565b60006020820190508181036000830152610bdc81610ada565b9050919050565b60006020820190508181036000830152610bfc81610afd565b9050919050565b6000606082019050610c186000830186610b92565b8181036020830152610c2a8185610a21565b9050610c396040830184610946565b949350505050565b6000608082019050610c566000830187610b92565b8181036020830152610c688186610a21565b9050610c776040830185610946565b610c8460608301846109d9565b95945050505050565b6000606082019050610ca26000830186610b92565b8181036020830152610cb48185610a5a565b9050610cc36040830184610946565b949350505050565b6000610cd5610ce6565b9050610ce18282610ee2565b919050565b6000604051905090565b600067ffffffffffffffff821115610d0b57610d0a610f71565b5b610d1482610fa0565b9050602081019050919050565b6000819050602082019050919050565b60008190508160005260206000209050919050565b600081519050919050565b600081519050919050565b6000602082019050919050565b600082825260208201905092915050565b600082825260208201905092915050565b600082825260208201905092915050565b6000610da782610e64565b9150610db283610e64565b9250827fffffffffffffffffffffffffffffffffffffffffffffffffffffffffffffffff03821115610de757610de6610f13565b5b828201905092915050565b6000610dfd82610e64565b9150610e0883610e64565b925082821015610e1b57610e1a610f13565b5b828203905092915050565b6000610e3182610e44565b9050919050565b60008115159050919050565b600073ffffffffffffffffffffffffffffffffffffffff82169050919050565b6000819050919050565b82818337600083830152505050565b60005b83811015610e9b578082015181840152602081019050610e80565b83811115610eaa576000848401525b50505050565b60006002820490506001821680610ec857607f821691505b60208210811415610edc57610edb610f42565b5b50919050565b610eeb82610fa0565b810181811067ffffffffffffffff82111715610f0a57610f09610f71565b5b80604052505050565b7f4e487b7100000000000000000000000000000000000000000000000000000000600052601160045260246000fd5b7f4e487b7100000000000000000000000000000000000000000000000000000000600052602260045260246000fd5b7f4e487b7100000000000000000000000000000000000000000000000000000000600052604160045260246000fd5b6000601f19601f8301169050919050565b7f54776565742063616e206f6e6c7920626520656469746564206279206f776e6560008201527f7200000000000000000000000000000000000000000000000000000000000000602082015250565b7f54776565742063616e206f6e6c792062652064656c65746564206279206f776e60008201527f6572000000000000000000000000000000000000000000000000000000000000602082015250565b61105881610e64565b811461106357600080fd5b5056fea26469706673582212207650a740c8a82ea9d02d41112d48545718c2002c20e9b39daa61f090f05b22d764736f6c63430008010033",
  "immutableReferences": {},
  "source": "pragma solidity ^0.8.0;\r\n\r\ncontract Tweets {\r\n\r\nTweeter[] public tweets;\r\n\r\n    struct Tweeter {\r\n        uint id;\r\n        string content;\r\n        address author;\r\n        bool deleted;\r\n    }\r\n\r\n    event Tweeted(uint256 id, string content, address author);\r\n\r\n    /**\r\n\t * @dev We can fix the comment later. This is just a fix since we were having issues access the tweets array direclty\r\n     * Now this should work 'tweets = await instance.readTweets()'\r\n\t */\r\n    function readTweets() public view returns (Tweeter[] memory){\r\n        return tweets;\r\n    }\r\n\r\n    function createTweets(string memory _content) public {\r\n        uint id = tweets.length + 1;\r\n        tweets.push(Tweeter(id, _content, msg.sender, false));\r\n        emit Tweeted(id, _content, msg.sender);\r\n    }\r\n\r\n    function delTweets(uint _index) public {\r\n        uint id = _index - 1;\r\n        Tweeter storage tweet = tweets[id];\r\n        require(\r\n\t\t\tmsg.sender == tweet.author,\r\n\t\t\t\"Tweet can only be deleted by owner\"\r\n\t\t);\r\n        tweet.deleted = true;\r\n        emit Tweeted(id, tweet.content, msg.sender);\r\n    }\r\n\r\n    function editTweets(uint _index, string memory _newcontent) public {\r\n        uint id = _index - 1;\r\n        Tweeter storage tweet = tweets[id];\r\n         require(\r\n\t\t\tmsg.sender == tweet.author,\r\n\t\t\t\"Tweet can only be edited by owner\"\r\n\t\t);\r\n        tweet.content = _newcontent;\r\n        emit Tweeted(id, tweet.content, msg.sender);\r\n    }\r\n}\r\n",
  "sourcePath": "D:/Projects/AppStore/blockchain/twitterclone/contracts/Tweets.sol",
  "compiler": {
    "name": "solc",
    "version": "0.8.1+commit.df193b15.Emscripten.clang"
  },
  "schemaVersion": "3.3.4",
  "updatedAt": "2021-05-28T11:29:20.939Z",
  "networkType": "ethereum",
  "devdoc": {
    "kind": "dev",
    "methods": {
      "readTweets()": {
        "details": "We can fix the comment later. This is just a fix since we were having issues access the tweets array direclty Now this should work 'tweets = await instance.readTweets()'"
      }
    },
    "version": 1
  },
  "userdoc": {
    "kind": "user",
    "methods": {},
    "version": 1
  }
}